{"contracts/AuditBoard.sol":{"AuditBoard":{"abi":[{"inputs":[{"internalType":"address","name":"kgcAddress","type":"address"}],"stateMutability":"nonpayable","type":"constructor"},{"anonymous":false,"inputs":[{"indexed":true,"internalType":"uint256","name":"round","type":"uint256"},{"indexed":true,"internalType":"bytes32","name":"auditRoot","type":"bytes32"},{"indexed":true,"internalType":"bytes32","name":"modelHashNext","type":"bytes32"},{"indexed":false,"internalType":"bytes32","name":"rootUp","type":"bytes32"},{"indexed":false,"internalType":"bytes32","name":"comAggHash","type":"bytes32"}],"name":"FinalSubmitted","type":"event"},{"anonymous":false,"inputs":[{"indexed":true,"internalType":"uint256","name":"round","type":"uint256"},{"indexed":true,"internalType":"bytes32","name":"clientIdHash","type":"bytes32"},{"indexed":false,"internalType":"bytes32","name":"receiptHash","type":"bytes32"},{"indexed":false,"internalType":"bytes32","name":"rootUp","type":"bytes32"},{"indexed":false,"internalType":"string","name":"claimType","type":"string"}],"name":"FraudProofSubmitted","type":"event"},{"anonymous":false,"inputs":[{"indexed":true,"internalType":"bytes32","name":"auditRoot0","type":"bytes32"},{"indexed":true,"internalType":"bytes32","name":"modelHash0","type":"bytes32"},{"indexed":false,"internalType":"bytes32","name":"sysParaHash","type":"bytes32"},{"indexed":false,"internalType":"bytes32","name":"uRoot","type":"bytes32"}],"name":"InitSubmitted","type":"event"},{"inputs":[],"name":"initialized","outputs":[{"internalType":"bool","name":"","type":"bool"}],"stateMutability":"view","type":"function"},{"inputs":[],"name":"kgc","outputs":[{"internalType":"address","name":"","type":"address"}],"stateMutability":"view","type":"function"},{"inputs":[],"name":"latestAuditRoot","outputs":[{"internalType":"bytes32","name":"","type":"bytes32"}],"stateMutability":"view","type":"function"},{"inputs":[],"name":"latestModelHash","outputs":[{"internalType":"bytes32","name":"","type":"bytes32"}],"stateMutability":"view","type":"function"},{"inputs":[],"name":"latestRound","outputs":[{"internalType":"uint256","name":"","type":"uint256"}],"stateMutability":"view","type":"function"},{"inputs":[{"internalType":"uint256","name":"round","type":"uint256"},{"internalType":"bytes32","name":"alpha","type":"bytes32"},{"internalType":"bytes32","name":"rootUp","type":"bytes32"},{"internalType":"bytes32","name":"comAggHash","type":"bytes32"},{"internalType":"bytes32","name":"modelHashR","type":"bytes32"},{"internalType":"bytes32","name":"modelHashNext","type":"bytes32"},{"internalType":"bytes32","name":"auditRoot","type":"bytes32"},{"internalType":"bytes","name":"sigFinal","type":"bytes"}],"name":"submitFinal","outputs":[],"stateMutability":"nonpayable","type":"function"},{"inputs":[{"internalType":"uint256","name":"round","type":"uint256"},{"internalType":"bytes32","name":"clientIdHash","type":"bytes32"},{"internalType":"bytes32","name":"receiptHash","type":"bytes32"},{"internalType":"bytes32","name":"rootUp","type":"bytes32"},{"internalType":"string","name":"claimType","type":"string"},{"internalType":"bytes","name":"proofData","type":"bytes"},{"internalType":"bytes","name":"sigClient","type":"bytes"}],"name":"submitFraudProof","outputs":[],"stateMutability":"nonpayable","type":"function"},{"inputs":[{"internalType":"bytes32","name":"sysParaHash","type":"bytes32"},{"internalType":"bytes32","name":"uRoot","type":"bytes32"},{"internalType":"bytes32","name":"modelHash0","type":"bytes32"},{"internalType":"bytes32","name":"auditRoot0","type":"bytes32"},{"internalType":"bytes","name":"sigInit","type":"bytes"}],"name":"submitInit","outputs":[],"stateMutability":"nonpayable","type":"function"}],"evm":{"bytecode":{"linkReferences":{},"object":"60806040523480156200001157600080fd5b5060405162001329380380620013298339818101604052810190620000379190620000e8565b806000806101000a81548173ffffffffffffffffffffffffffffffffffffffff021916908373ffffffffffffffffffffffffffffffffffffffff160217905550506200011a565b600080fd5b600073ffffffffffffffffffffffffffffffffffffffff82169050919050565b6000620000b08262000083565b9050919050565b620000c281620000a3565b8114620000ce57600080fd5b50565b600081519050620000e281620000b7565b92915050565b6000602082840312156200010157620001006200007e565b5b60006200011184828501620000d1565b91505092915050565b6111ff806200012a6000396000f3fe608060405234801561001057600080fd5b50600436106100885760003560e01c80639caff9101161005b5780639caff910146101015780639ec5c8631461011f578063a0235f041461013b578063d6a758291461015957610088565b8063158ef93e1461008d5780631b03f905146100ab578063668a0f02146100c75780638a816a12146100e5575b600080fd5b610095610177565b6040516100a29190610710565b60405180910390f35b6100c560048036038101906100c0919061085c565b61018a565b005b6100cf610224565b6040516100dc919061096e565b60405180910390f35b6100ff60048036038101906100fa9190610989565b61022a565b005b610109610436565b6040516101169190610a32565b60405180910390f35b61013960048036038101906101349190610a4d565b61043c565b005b6101436106cb565b6040516101509190610a32565b60405180910390f35b6101616106d1565b60405161016e9190610b64565b60405180910390f35b600060149054906101000a900460ff1681565b600060149054906101000a900460ff166101d9576040517f08c379a00000000000000000000000000000000000000000000000000000000081526004016101d090610bdc565b60405180910390fd5b888a7f25898e2f97dae06f4b5de446a24f320b141fd796b694ab8ba98a553d3148d8118a8a8a8a6040516102109493929190610c49565b60405180910390a350505050505050505050565b60015481565b60008054906101000a900473ffffffffffffffffffffffffffffffffffffffff1673ffffffffffffffffffffffffffffffffffffffff163373ffffffffffffffffffffffffffffffffffffffff16146102b8576040517f08c379a00000000000000000000000000000000000000000000000000000000081526004016102af90610cd5565b60405180910390fd5b600060149054906101000a900460ff1615610308576040517f08c379a00000000000000000000000000000000000000000000000000000000081526004016102ff90610d41565b60405180910390fd5b6000600287878760405160200161032193929190610dd9565b60405160208183030381529060405260405161033d9190610e92565b602060405180830381855afa15801561035a573d6000803e3d6000fd5b5050506040513d601f19601f8201168201806040525081019061037d9190610ebe565b90508381146103c1576040517f08c379a00000000000000000000000000000000000000000000000000000000081526004016103b890610f37565b60405180910390fd5b6001600060146101000a81548160ff0219169083151502179055506000600181905550836002819055508460038190555084847f85a8ed4546d7f875e278f3f65dfa94750d199c7957176098cf0756d1e5afd7c78989604051610425929190610f57565b60405180910390a350505050505050565b60025481565b60008054906101000a900473ffffffffffffffffffffffffffffffffffffffff1673ffffffffffffffffffffffffffffffffffffffff163373ffffffffffffffffffffffffffffffffffffffff16146104ca576040517f08c379a00000000000000000000000000000000000000000000000000000000081526004016104c190610cd5565b60405180910390fd5b600060149054906101000a900460ff16610519576040517f08c379a000000000000000000000000000000000000000000000000000000000815260040161051090610bdc565b60405180910390fd5b600180546105279190610faf565b8914610568576040517f08c379a000000000000000000000000000000000000000000000000000000000815260040161055f9061102f565b60405180910390fd5b60035485146105ac576040517f08c379a00000000000000000000000000000000000000000000000000000000081526004016105a39061109b565b60405180910390fd5b6000600280548b8b8b8b8b8b6040516020016105ce97969594939291906110dc565b6040516020818303038152906040526040516105ea9190610e92565b602060405180830381855afa158015610607573d6000803e3d6000fd5b5050506040513d601f19601f8201168201806040525081019061062a9190610ebe565b905083811461066e576040517f08c379a0000000000000000000000000000000000000000000000000000000008152600401610665906111a9565b60405180910390fd5b89600181905550836002819055508460038190555084848b7fd20359f9c48119bd2d91a5e31e116d720ba87fc9ec580a554f96be637f2b74068b8b6040516106b7929190610f57565b60405180910390a450505050505050505050565b60035481565b60008054906101000a900473ffffffffffffffffffffffffffffffffffffffff1681565b60008115159050919050565b61070a816106f5565b82525050565b60006020820190506107256000830184610701565b92915050565b600080fd5b600080fd5b6000819050919050565b61074881610735565b811461075357600080fd5b50565b6000813590506107658161073f565b92915050565b6000819050919050565b61077e8161076b565b811461078957600080fd5b50565b60008135905061079b81610775565b92915050565b600080fd5b600080fd5b600080fd5b60008083601f8401126107c6576107c56107a1565b5b8235905067ffffffffffffffff8111156107e3576107e26107a6565b5b6020830191508360018202830111156107ff576107fe6107ab565b5b9250929050565b60008083601f84011261081c5761081b6107a1565b5b8235905067ffffffffffffffff811115610839576108386107a6565b5b602083019150836001820283011115610855576108546107ab565b5b9250929050565b60008060008060008060008060008060e08b8d03121561087f5761087e61072b565b5b600061088d8d828e01610756565b9a5050602061089e8d828e0161078c565b99505060406108af8d828e0161078c565b98505060606108c08d828e0161078c565b97505060808b013567ffffffffffffffff8111156108e1576108e0610730565b5b6108ed8d828e016107b0565b965096505060a08b013567ffffffffffffffff8111156109105761090f610730565b5b61091c8d828e01610806565b945094505060c08b013567ffffffffffffffff81111561093f5761093e610730565b5b61094b8d828e01610806565b92509250509295989b9194979a5092959850565b61096881610735565b82525050565b6000602082019050610983600083018461095f565b92915050565b60008060008060008060a087890312156109a6576109a561072b565b5b60006109b489828a0161078c565b96505060206109c589828a0161078c565b95505060406109d689828a0161078c565b94505060606109e789828a0161078c565b935050608087013567ffffffffffffffff811115610a0857610a07610730565b5b610a1489828a01610806565b92509250509295509295509295565b610a2c8161076b565b82525050565b6000602082019050610a476000830184610a23565b92915050565b60008060008060008060008060006101008a8c031215610a7057610a6f61072b565b5b6000610a7e8c828d01610756565b9950506020610a8f8c828d0161078c565b9850506040610aa08c828d0161078c565b9750506060610ab18c828d0161078c565b9650506080610ac28c828d0161078c565b95505060a0610ad38c828d0161078c565b94505060c0610ae48c828d0161078c565b93505060e08a013567ffffffffffffffff811115610b0557610b04610730565b5b610b118c828d01610806565b92509250509295985092959850929598565b600073ffffffffffffffffffffffffffffffffffffffff82169050919050565b6000610b4e82610b23565b9050919050565b610b5e81610b43565b82525050565b6000602082019050610b796000830184610b55565b92915050565b600082825260208201905092915050565b7f6e6f7420696e697469616c697a65640000000000000000000000000000000000600082015250565b6000610bc6600f83610b7f565b9150610bd182610b90565b602082019050919050565b60006020820190508181036000830152610bf581610bb9565b9050919050565b82818337600083830152505050565b6000601f19601f8301169050919050565b6000610c288385610b7f565b9350610c35838584610bfc565b610c3e83610c0b565b840190509392505050565b6000606082019050610c5e6000830187610a23565b610c6b6020830186610a23565b8181036040830152610c7e818486610c1c565b905095945050505050565b7f6f6e6c79204b4743000000000000000000000000000000000000000000000000600082015250565b6000610cbf600883610b7f565b9150610cca82610c89565b602082019050919050565b60006020820190508181036000830152610cee81610cb2565b9050919050565b7f616c726561647920696e697469616c697a656400000000000000000000000000600082015250565b6000610d2b601383610b7f565b9150610d3682610cf5565b602082019050919050565b60006020820190508181036000830152610d5a81610d1e565b9050919050565b600081905092915050565b7f41554449545f494e495400000000000000000000000000000000000000000000600082015250565b6000610da2600a83610d61565b9150610dad82610d6c565b600a82019050919050565b6000819050919050565b610dd3610dce8261076b565b610db8565b82525050565b6000610de482610d95565b9150610df08286610dc2565b602082019150610e008285610dc2565b602082019150610e108284610dc2565b602082019150819050949350505050565b600081519050919050565b600081905092915050565b60005b83811015610e55578082015181840152602081019050610e3a565b60008484015250505050565b6000610e6c82610e21565b610e768185610e2c565b9350610e86818560208601610e37565b80840191505092915050565b6000610e9e8284610e61565b915081905092915050565b600081519050610eb881610775565b92915050565b600060208284031215610ed457610ed361072b565b5b6000610ee284828501610ea9565b91505092915050565b7f626164206175646974526f6f7430000000000000000000000000000000000000600082015250565b6000610f21600e83610b7f565b9150610f2c82610eeb565b602082019050919050565b60006020820190508181036000830152610f5081610f14565b9050919050565b6000604082019050610f6c6000830185610a23565b610f796020830184610a23565b9392505050565b7f4e487b7100000000000000000000000000000000000000000000000000000000600052601160045260246000fd5b6000610fba82610735565b9150610fc583610735565b9250828201905080821115610fdd57610fdc610f80565b5b92915050565b7f62616420726f756e640000000000000000000000000000000000000000000000600082015250565b6000611019600983610b7f565b915061102482610fe3565b602082019050919050565b600060208201905081810360008301526110488161100c565b9050919050565b7f626164206d6f64656c20636861696e0000000000000000000000000000000000600082015250565b6000611085600f83610b7f565b91506110908261104f565b602082019050919050565b600060208201905081810360008301526110b481611078565b9050919050565b6000819050919050565b6110d66110d182610735565b6110bb565b82525050565b60006110e8828a610dc2565b6020820191506110f882896110c5565b6020820191506111088288610dc2565b6020820191506111188287610dc2565b6020820191506111288286610dc2565b6020820191506111388285610dc2565b6020820191506111488284610dc2565b60208201915081905098975050505050505050565b7f62616420617564697420726f6f74000000000000000000000000000000000000600082015250565b6000611193600e83610b7f565b915061119e8261115d565b602082019050919050565b600060208201905081810360008301526111c281611186565b905091905056fea26469706673582212204d3090595200ca7bd9a37ffc6fbff8bbdd6de836c1470720bd9f03cf7b7a217464736f6c63430008180033","opcodes":"PUSH1 0x80 PUSH1 0x40 MSTORE CALLVALUE DUP1 ISZERO PUSH3 0x11 JUMPI PUSH1 0x0 DUP1 REVERT JUMPDEST POP PUSH1 0x40 MLOAD PUSH3 0x1329 CODESIZE SUB DUP1 PUSH3 0x1329 DUP4 CODECOPY DUP2 DUP2 ADD PUSH1 0x40 MSTORE DUP2 ADD SWAP1 PUSH3 0x37 SWAP2 SWAP1 PUSH3 0xE8 JUMP JUMPDEST DUP1 PUSH1 0x0 DUP1 PUSH2 0x100 EXP DUP2 SLOAD DUP2 PUSH20 0xFFFFFFFFFFFFFFFFFFFFFFFFFFFFFFFFFFFFFFFF MUL NOT AND SWAP1 DUP4 PUSH20 0xFFFFFFFFFFFFFFFFFFFFFFFFFFFFFFFFFFFFFFFF AND MUL OR SWAP1 SSTORE POP POP PUSH3 0x11A JUMP JUMPDEST PUSH1 0x0 DUP1 REVERT JUMPDEST PUSH1 0x0 PUSH20 0xFFFFFFFFFFFFFFFFFFFFFFFFFFFFFFFFFFFFFFFF DUP3 AND SWAP1 POP SWAP2 SWAP1 POP JUMP JUMPDEST PUSH1 0x0 PUSH3 0xB0 DUP3 PUSH3 0x83 JUMP JUMPDEST SWAP1 POP SWAP2 SWAP1 POP JUMP JUMPDEST PUSH3 0xC2 DUP2 PUSH3 0xA3 JUMP JUMPDEST DUP2 EQ PUSH3 0xCE JUMPI PUSH1 0x0 DUP1 REVERT JUMPDEST POP JUMP JUMPDEST PUSH1 0x0 DUP2 MLOAD SWAP1 POP PUSH3 0xE2 DUP2 PUSH3 0xB7 JUMP JUMPDEST SWAP3 SWAP2 POP POP JUMP JUMPDEST PUSH1 0x0 PUSH1 0x20 DUP3 DUP5 SUB SLT ISZERO PUSH3 0x101 JUMPI PUSH3 0x100 PUSH3 0x7E JUMP JUMPDEST JUMPDEST PUSH1 0x0 PUSH3 0x111 DUP5 DUP3 DUP6 ADD PUSH3 0xD1 JUMP JUMPDEST SWAP2 POP POP SWAP3 SWAP2 POP POP JUMP JUMPDEST PUSH2 0x11FF DUP1 PUSH3 0x12A PUSH1 0x0 CODECOPY PUSH1 0x0 RETURN INVALID PUSH1 0x80 PUSH1 0x40 MSTORE CALLVALUE DUP1 ISZERO PUSH2 0x10 JUMPI PUSH1 0x0 DUP1 REVERT JUMPDEST POP PUSH1 0x4 CALLDATASIZE LT PUSH2 0x88 JUMPI PUSH1 0x0 CALLDATALOAD PUSH1 0xE0 SHR DUP1 PUSH4 0x9CAFF910 GT PUSH2 0x5B JUMPI DUP1 PUSH4 0x9CAFF910 EQ PUSH2 0x101 JUMPI DUP1 PUSH4 0x9EC5C863 EQ PUSH2 0x11F JUMPI DUP1 PUSH4 0xA0235F04 EQ PUSH2 0x13B JUMPI DUP1 PUSH4 0xD6A75829 EQ PUSH2 0x159 JUMPI PUSH2 0x88 JUMP JUMPDEST DUP1 PUSH4 0x158EF93E EQ PUSH2 0x8D JUMPI DUP1 PUSH4 0x1B03F905 EQ PUSH2 0xAB JUMPI DUP1 PUSH4 0x668A0F02 EQ PUSH2 0xC7 JUMPI DUP1 PUSH4 0x8A816A12 EQ PUSH2 0xE5 JUMPI JUMPDEST PUSH1 0x0 DUP1 REVERT JUMPDEST PUSH2 0x95 PUSH2 0x177 JUMP JUMPDEST PUSH1 0x40 MLOAD PUSH2 0xA2 SWAP2 SWAP1 PUSH2 0x710 JUMP JUMPDEST PUSH1 0x40 MLOAD DUP1 SWAP2 SUB SWAP1 RETURN JUMPDEST PUSH2 0xC5 PUSH1 0x4 DUP1 CALLDATASIZE SUB DUP2 ADD SWAP1 PUSH2 0xC0 SWAP2 SWAP1 PUSH2 0x85C JUMP JUMPDEST PUSH2 0x18A JUMP JUMPDEST STOP JUMPDEST PUSH2 0xCF PUSH2 0x224 JUMP JUMPDEST PUSH1 0x40 MLOAD PUSH2 0xDC SWAP2 SWAP1 PUSH2 0x96E JUMP JUMPDEST PUSH1 0x40 MLOAD DUP1 SWAP2 SUB SWAP1 RETURN JUMPDEST PUSH2 0xFF PUSH1 0x4 DUP1 CALLDATASIZE SUB DUP2 ADD SWAP1 PUSH2 0xFA SWAP2 SWAP1 PUSH2 0x989 JUMP JUMPDEST PUSH2 0x22A JUMP JUMPDEST STOP JUMPDEST PUSH2 0x109 PUSH2 0x436 JUMP JUMPDEST PUSH1 0x40 MLOAD PUSH2 0x116 SWAP2 SWAP1 PUSH2 0xA32 JUMP JUMPDEST PUSH1 0x40 MLOAD DUP1 SWAP2 SUB SWAP1 RETURN JUMPDEST PUSH2 0x139 PUSH1 0x4 DUP1 CALLDATASIZE SUB DUP2 ADD SWAP1 PUSH2 0x134 SWAP2 SWAP1 PUSH2 0xA4D JUMP JUMPDEST PUSH2 0x43C JUMP JUMPDEST STOP JUMPDEST PUSH2 0x143 PUSH2 0x6CB JUMP JUMPDEST PUSH1 0x40 MLOAD PUSH2 0x150 SWAP2 SWAP1 PUSH2 0xA32 JUMP JUMPDEST PUSH1 0x40 MLOAD DUP1 SWAP2 SUB SWAP1 RETURN JUMPDEST PUSH2 0x161 PUSH2 0x6D1 JUMP JUMPDEST PUSH1 0x40 MLOAD PUSH2 0x16E SWAP2 SWAP1 PUSH2 0xB64 JUMP JUMPDEST PUSH1 0x40 MLOAD DUP1 SWAP2 SUB SWAP1 RETURN JUMPDEST PUSH1 0x0 PUSH1 0x14 SWAP1 SLOAD SWAP1 PUSH2 0x100 EXP SWAP1 DIV PUSH1 0xFF AND DUP2 JUMP JUMPDEST PUSH1 0x0 PUSH1 0x14 SWAP1 SLOAD SWAP1 PUSH2 0x100 EXP SWAP1 DIV PUSH1 0xFF AND PUSH2 0x1D9 JUMPI PUSH1 0x40 MLOAD PUSH32 0x8C379A000000000000000000000000000000000000000000000000000000000 DUP2 MSTORE PUSH1 0x4 ADD PUSH2 0x1D0 SWAP1 PUSH2 0xBDC JUMP JUMPDEST PUSH1 0x40 MLOAD DUP1 SWAP2 SUB SWAP1 REVERT JUMPDEST DUP9 DUP11 PUSH32 0x25898E2F97DAE06F4B5DE446A24F320B141FD796B694AB8BA98A553D3148D811 DUP11 DUP11 DUP11 DUP11 PUSH1 0x40 MLOAD PUSH2 0x210 SWAP5 SWAP4 SWAP3 SWAP2 SWAP1 PUSH2 0xC49 JUMP JUMPDEST PUSH1 0x40 MLOAD DUP1 SWAP2 SUB SWAP1 LOG3 POP POP POP POP POP POP POP POP POP POP JUMP JUMPDEST PUSH1 0x1 SLOAD DUP2 JUMP JUMPDEST PUSH1 0x0 DUP1 SLOAD SWAP1 PUSH2 0x100 EXP SWAP1 DIV PUSH20 0xFFFFFFFFFFFFFFFFFFFFFFFFFFFFFFFFFFFFFFFF AND PUSH20 0xFFFFFFFFFFFFFFFFFFFFFFFFFFFFFFFFFFFFFFFF AND CALLER PUSH20 0xFFFFFFFFFFFFFFFFFFFFFFFFFFFFFFFFFFFFFFFF AND EQ PUSH2 0x2B8 JUMPI PUSH1 0x40 MLOAD PUSH32 0x8C379A000000000000000000000000000000000000000000000000000000000 DUP2 MSTORE PUSH1 0x4 ADD PUSH2 0x2AF SWAP1 PUSH2 0xCD5 JUMP JUMPDEST PUSH1 0x40 MLOAD DUP1 SWAP2 SUB SWAP1 REVERT JUMPDEST PUSH1 0x0 PUSH1 0x14 SWAP1 SLOAD SWAP1 PUSH2 0x100 EXP SWAP1 DIV PUSH1 0xFF AND ISZERO PUSH2 0x308 JUMPI PUSH1 0x40 MLOAD PUSH32 0x8C379A000000000000000000000000000000000000000000000000000000000 DUP2 MSTORE PUSH1 0x4 ADD PUSH2 0x2FF SWAP1 PUSH2 0xD41 JUMP JUMPDEST PUSH1 0x40 MLOAD DUP1 SWAP2 SUB SWAP1 REVERT JUMPDEST PUSH1 0x0 PUSH1 0x2 DUP8 DUP8 DUP8 PUSH1 0x40 MLOAD PUSH1 0x20 ADD PUSH2 0x321 SWAP4 SWAP3 SWAP2 SWAP1 PUSH2 0xDD9 JUMP JUMPDEST PUSH1 0x40 MLOAD PUSH1 0x20 DUP2 DUP4 SUB SUB DUP2 MSTORE SWAP1 PUSH1 0x40 MSTORE PUSH1 0x40 MLOAD PUSH2 0x33D SWAP2 SWAP1 PUSH2 0xE92 JUMP JUMPDEST PUSH1 0x20 PUSH1 0x40 MLOAD DUP1 DUP4 SUB DUP2 DUP6 GAS STATICCALL ISZERO DUP1 ISZERO PUSH2 0x35A JUMPI RETURNDATASIZE PUSH1 0x0 DUP1 RETURNDATACOPY RETURNDATASIZE PUSH1 0x0 REVERT JUMPDEST POP POP POP PUSH1 0x40 MLOAD RETURNDATASIZE PUSH1 0x1F NOT PUSH1 0x1F DUP3 ADD AND DUP3 ADD DUP1 PUSH1 0x40 MSTORE POP DUP2 ADD SWAP1 PUSH2 0x37D SWAP2 SWAP1 PUSH2 0xEBE JUMP JUMPDEST SWAP1 POP DUP4 DUP2 EQ PUSH2 0x3C1 JUMPI PUSH1 0x40 MLOAD PUSH32 0x8C379A000000000000000000000000000000000000000000000000000000000 DUP2 MSTORE PUSH1 0x4 ADD PUSH2 0x3B8 SWAP1 PUSH2 0xF37 JUMP JUMPDEST PUSH1 0x40 MLOAD DUP1 SWAP2 SUB SWAP1 REVERT JUMPDEST PUSH1 0x1 PUSH1 0x0 PUSH1 0x14 PUSH2 0x100 EXP DUP2 SLOAD DUP2 PUSH1 0xFF MUL NOT AND SWAP1 DUP4 ISZERO ISZERO MUL OR SWAP1 SSTORE POP PUSH1 0x0 PUSH1 0x1 DUP2 SWAP1 SSTORE POP DUP4 PUSH1 0x2 DUP2 SWAP1 SSTORE POP DUP5 PUSH1 0x3 DUP2 SWAP1 SSTORE POP DUP5 DUP5 PUSH32 0x85A8ED4546D7F875E278F3F65DFA94750D199C7957176098CF0756D1E5AFD7C7 DUP10 DUP10 PUSH1 0x40 MLOAD PUSH2 0x425 SWAP3 SWAP2 SWAP1 PUSH2 0xF57 JUMP JUMPDEST PUSH1 0x40 MLOAD DUP1 SWAP2 SUB SWAP1 LOG3 POP POP POP POP POP POP POP JUMP JUMPDEST PUSH1 0x2 SLOAD DUP2 JUMP JUMPDEST PUSH1 0x0 DUP1 SLOAD SWAP1 PUSH2 0x100 EXP SWAP1 DIV PUSH20 0xFFFFFFFFFFFFFFFFFFFFFFFFFFFFFFFFFFFFFFFF AND PUSH20 0xFFFFFFFFFFFFFFFFFFFFFFFFFFFFFFFFFFFFFFFF AND CALLER PUSH20 0xFFFFFFFFFFFFFFFFFFFFFFFFFFFFFFFFFFFFFFFF AND EQ PUSH2 0x4CA JUMPI PUSH1 0x40 MLOAD PUSH32 0x8C379A000000000000000000000000000000000000000000000000000000000 DUP2 MSTORE PUSH1 0x4 ADD PUSH2 0x4C1 SWAP1 PUSH2 0xCD5 JUMP JUMPDEST PUSH1 0x40 MLOAD DUP1 SWAP2 SUB SWAP1 REVERT JUMPDEST PUSH1 0x0 PUSH1 0x14 SWAP1 SLOAD SWAP1 PUSH2 0x100 EXP SWAP1 DIV PUSH1 0xFF AND PUSH2 0x519 JUMPI PUSH1 0x40 MLOAD PUSH32 0x8C379A000000000000000000000000000000000000000000000000000000000 DUP2 MSTORE PUSH1 0x4 ADD PUSH2 0x510 SWAP1 PUSH2 0xBDC JUMP JUMPDEST PUSH1 0x40 MLOAD DUP1 SWAP2 SUB SWAP1 REVERT JUMPDEST PUSH1 0x1 DUP1 SLOAD PUSH2 0x527 SWAP2 SWAP1 PUSH2 0xFAF JUMP JUMPDEST DUP10 EQ PUSH2 0x568 JUMPI PUSH1 0x40 MLOAD PUSH32 0x8C379A000000000000000000000000000000000000000000000000000000000 DUP2 MSTORE PUSH1 0x4 ADD PUSH2 0x55F SWAP1 PUSH2 0x102F JUMP JUMPDEST PUSH1 0x40 MLOAD DUP1 SWAP2 SUB SWAP1 REVERT JUMPDEST PUSH1 0x3 SLOAD DUP6 EQ PUSH2 0x5AC JUMPI PUSH1 0x40 MLOAD PUSH32 0x8C379A000000000000000000000000000000000000000000000000000000000 DUP2 MSTORE PUSH1 0x4 ADD PUSH2 0x5A3 SWAP1 PUSH2 0x109B JUMP JUMPDEST PUSH1 0x40 MLOAD DUP1 SWAP2 SUB SWAP1 REVERT JUMPDEST PUSH1 0x0 PUSH1 0x2 DUP1 SLOAD DUP12 DUP12 DUP12 DUP12 DUP12 DUP12 PUSH1 0x40 MLOAD PUSH1 0x20 ADD PUSH2 0x5CE SWAP8 SWAP7 SWAP6 SWAP5 SWAP4 SWAP3 SWAP2 SWAP1 PUSH2 0x10DC JUMP JUMPDEST PUSH1 0x40 MLOAD PUSH1 0x20 DUP2 DUP4 SUB SUB DUP2 MSTORE SWAP1 PUSH1 0x40 MSTORE PUSH1 0x40 MLOAD PUSH2 0x5EA SWAP2 SWAP1 PUSH2 0xE92 JUMP JUMPDEST PUSH1 0x20 PUSH1 0x40 MLOAD DUP1 DUP4 SUB DUP2 DUP6 GAS STATICCALL ISZERO DUP1 ISZERO PUSH2 0x607 JUMPI RETURNDATASIZE PUSH1 0x0 DUP1 RETURNDATACOPY RETURNDATASIZE PUSH1 0x0 REVERT JUMPDEST POP POP POP PUSH1 0x40 MLOAD RETURNDATASIZE PUSH1 0x1F NOT PUSH1 0x1F DUP3 ADD AND DUP3 ADD DUP1 PUSH1 0x40 MSTORE POP DUP2 ADD SWAP1 PUSH2 0x62A SWAP2 SWAP1 PUSH2 0xEBE JUMP JUMPDEST SWAP1 POP DUP4 DUP2 EQ PUSH2 0x66E JUMPI PUSH1 0x40 MLOAD PUSH32 0x8C379A000000000000000000000000000000000000000000000000000000000 DUP2 MSTORE PUSH1 0x4 ADD PUSH2 0x665 SWAP1 PUSH2 0x11A9 JUMP JUMPDEST PUSH1 0x40 MLOAD DUP1 SWAP2 SUB SWAP1 REVERT JUMPDEST DUP10 PUSH1 0x1 DUP2 SWAP1 SSTORE POP DUP4 PUSH1 0x2 DUP2 SWAP1 SSTORE POP DUP5 PUSH1 0x3 DUP2 SWAP1 SSTORE POP DUP5 DUP5 DUP12 PUSH32 0xD20359F9C48119BD2D91A5E31E116D720BA87FC9EC580A554F96BE637F2B7406 DUP12 DUP12 PUSH1 0x40 MLOAD PUSH2 0x6B7 SWAP3 SWAP2 SWAP1 PUSH2 0xF57 JUMP JUMPDEST PUSH1 0x40 MLOAD DUP1 SWAP2 SUB SWAP1 LOG4 POP POP POP POP POP POP POP POP POP POP JUMP JUMPDEST PUSH1 0x3 SLOAD DUP2 JUMP JUMPDEST PUSH1 0x0 DUP1 SLOAD SWAP1 PUSH2 0x100 EXP SWAP1 DIV PUSH20 0xFFFFFFFFFFFFFFFFFFFFFFFFFFFFFFFFFFFFFFFF AND DUP2 JUMP JUMPDEST PUSH1 0x0 DUP2 ISZERO ISZERO SWAP1 POP SWAP2 SWAP1 POP JUMP JUMPDEST PUSH2 0x70A DUP2 PUSH2 0x6F5 JUMP JUMPDEST DUP3 MSTORE POP POP JUMP JUMPDEST PUSH1 0x0 PUSH1 0x20 DUP3 ADD SWAP1 POP PUSH2 0x725 PUSH1 0x0 DUP4 ADD DUP5 PUSH2 0x701 JUMP JUMPDEST SWAP3 SWAP2 POP POP JUMP JUMPDEST PUSH1 0x0 DUP1 REVERT JUMPDEST PUSH1 0x0 DUP1 REVERT JUMPDEST PUSH1 0x0 DUP2 SWAP1 POP SWAP2 SWAP1 POP JUMP JUMPDEST PUSH2 0x748 DUP2 PUSH2 0x735 JUMP JUMPDEST DUP2 EQ PUSH2 0x753 JUMPI PUSH1 0x0 DUP1 REVERT JUMPDEST POP JUMP JUMPDEST PUSH1 0x0 DUP2 CALLDATALOAD SWAP1 POP PUSH2 0x765 DUP2 PUSH2 0x73F JUMP JUMPDEST SWAP3 SWAP2 POP POP JUMP JUMPDEST PUSH1 0x0 DUP2 SWAP1 POP SWAP2 SWAP1 POP JUMP JUMPDEST PUSH2 0x77E DUP2 PUSH2 0x76B JUMP JUMPDEST DUP2 EQ PUSH2 0x789 JUMPI PUSH1 0x0 DUP1 REVERT JUMPDEST POP JUMP JUMPDEST PUSH1 0x0 DUP2 CALLDATALOAD SWAP1 POP PUSH2 0x79B DUP2 PUSH2 0x775 JUMP JUMPDEST SWAP3 SWAP2 POP POP JUMP JUMPDEST PUSH1 0x0 DUP1 REVERT JUMPDEST PUSH1 0x0 DUP1 REVERT JUMPDEST PUSH1 0x0 DUP1 REVERT JUMPDEST PUSH1 0x0 DUP1 DUP4 PUSH1 0x1F DUP5 ADD SLT PUSH2 0x7C6 JUMPI PUSH2 0x7C5 PUSH2 0x7A1 JUMP JUMPDEST JUMPDEST DUP3 CALLDATALOAD SWAP1 POP PUSH8 0xFFFFFFFFFFFFFFFF DUP2 GT ISZERO PUSH2 0x7E3 JUMPI PUSH2 0x7E2 PUSH2 0x7A6 JUMP JUMPDEST JUMPDEST PUSH1 0x20 DUP4 ADD SWAP2 POP DUP4 PUSH1 0x1 DUP3 MUL DUP4 ADD GT ISZERO PUSH2 0x7FF JUMPI PUSH2 0x7FE PUSH2 0x7AB JUMP JUMPDEST JUMPDEST SWAP3 POP SWAP3 SWAP1 POP JUMP JUMPDEST PUSH1 0x0 DUP1 DUP4 PUSH1 0x1F DUP5 ADD SLT PUSH2 0x81C JUMPI PUSH2 0x81B PUSH2 0x7A1 JUMP JUMPDEST JUMPDEST DUP3 CALLDATALOAD SWAP1 POP PUSH8 0xFFFFFFFFFFFFFFFF DUP2 GT ISZERO PUSH2 0x839 JUMPI PUSH2 0x838 PUSH2 0x7A6 JUMP JUMPDEST JUMPDEST PUSH1 0x20 DUP4 ADD SWAP2 POP DUP4 PUSH1 0x1 DUP3 MUL DUP4 ADD GT ISZERO PUSH2 0x855 JUMPI PUSH2 0x854 PUSH2 0x7AB JUMP JUMPDEST JUMPDEST SWAP3 POP SWAP3 SWAP1 POP JUMP JUMPDEST PUSH1 0x0 DUP1 PUSH1 0x0 DUP1 PUSH1 0x0 DUP1 PUSH1 0x0 DUP1 PUSH1 0x0 DUP1 PUSH1 0xE0 DUP12 DUP14 SUB SLT ISZERO PUSH2 0x87F JUMPI PUSH2 0x87E PUSH2 0x72B JUMP JUMPDEST JUMPDEST PUSH1 0x0 PUSH2 0x88D DUP14 DUP3 DUP15 ADD PUSH2 0x756 JUMP JUMPDEST SWAP11 POP POP PUSH1 0x20 PUSH2 0x89E DUP14 DUP3 DUP15 ADD PUSH2 0x78C JUMP JUMPDEST SWAP10 POP POP PUSH1 0x40 PUSH2 0x8AF DUP14 DUP3 DUP15 ADD PUSH2 0x78C JUMP JUMPDEST SWAP9 POP POP PUSH1 0x60 PUSH2 0x8C0 DUP14 DUP3 DUP15 ADD PUSH2 0x78C JUMP JUMPDEST SWAP8 POP POP PUSH1 0x80 DUP12 ADD CALLDATALOAD PUSH8 0xFFFFFFFFFFFFFFFF DUP2 GT ISZERO PUSH2 0x8E1 JUMPI PUSH2 0x8E0 PUSH2 0x730 JUMP JUMPDEST JUMPDEST PUSH2 0x8ED DUP14 DUP3 DUP15 ADD PUSH2 0x7B0 JUMP JUMPDEST SWAP7 POP SWAP7 POP POP PUSH1 0xA0 DUP12 ADD CALLDATALOAD PUSH8 0xFFFFFFFFFFFFFFFF DUP2 GT ISZERO PUSH2 0x910 JUMPI PUSH2 0x90F PUSH2 0x730 JUMP JUMPDEST JUMPDEST PUSH2 0x91C DUP14 DUP3 DUP15 ADD PUSH2 0x806 JUMP JUMPDEST SWAP5 POP SWAP5 POP POP PUSH1 0xC0 DUP12 ADD CALLDATALOAD PUSH8 0xFFFFFFFFFFFFFFFF DUP2 GT ISZERO PUSH2 0x93F JUMPI PUSH2 0x93E PUSH2 0x730 JUMP JUMPDEST JUMPDEST PUSH2 0x94B DUP14 DUP3 DUP15 ADD PUSH2 0x806 JUMP JUMPDEST SWAP3 POP SWAP3 POP POP SWAP3 SWAP6 SWAP9 SWAP12 SWAP2 SWAP5 SWAP8 SWAP11 POP SWAP3 SWAP6 SWAP9 POP JUMP JUMPDEST PUSH2 0x968 DUP2 PUSH2 0x735 JUMP JUMPDEST DUP3 MSTORE POP POP JUMP JUMPDEST PUSH1 0x0 PUSH1 0x20 DUP3 ADD SWAP1 POP PUSH2 0x983 PUSH1 0x0 DUP4 ADD DUP5 PUSH2 0x95F JUMP JUMPDEST SWAP3 SWAP2 POP POP JUMP JUMPDEST PUSH1 0x0 DUP1 PUSH1 0x0 DUP1 PUSH1 0x0 DUP1 PUSH1 0xA0 DUP8 DUP10 SUB SLT ISZERO PUSH2 0x9A6 JUMPI PUSH2 0x9A5 PUSH2 0x72B JUMP JUMPDEST JUMPDEST PUSH1 0x0 PUSH2 0x9B4 DUP10 DUP3 DUP11 ADD PUSH2 0x78C JUMP JUMPDEST SWAP7 POP POP PUSH1 0x20 PUSH2 0x9C5 DUP10 DUP3 DUP11 ADD PUSH2 0x78C JUMP JUMPDEST SWAP6 POP POP PUSH1 0x40 PUSH2 0x9D6 DUP10 DUP3 DUP11 ADD PUSH2 0x78C JUMP JUMPDEST SWAP5 POP POP PUSH1 0x60 PUSH2 0x9E7 DUP10 DUP3 DUP11 ADD PUSH2 0x78C JUMP JUMPDEST SWAP4 POP POP PUSH1 0x80 DUP8 ADD CALLDATALOAD PUSH8 0xFFFFFFFFFFFFFFFF DUP2 GT ISZERO PUSH2 0xA08 JUMPI PUSH2 0xA07 PUSH2 0x730 JUMP JUMPDEST JUMPDEST PUSH2 0xA14 DUP10 DUP3 DUP11 ADD PUSH2 0x806 JUMP JUMPDEST SWAP3 POP SWAP3 POP POP SWAP3 SWAP6 POP SWAP3 SWAP6 POP SWAP3 SWAP6 JUMP JUMPDEST PUSH2 0xA2C DUP2 PUSH2 0x76B JUMP JUMPDEST DUP3 MSTORE POP POP JUMP JUMPDEST PUSH1 0x0 PUSH1 0x20 DUP3 ADD SWAP1 POP PUSH2 0xA47 PUSH1 0x0 DUP4 ADD DUP5 PUSH2 0xA23 JUMP JUMPDEST SWAP3 SWAP2 POP POP JUMP JUMPDEST PUSH1 0x0 DUP1 PUSH1 0x0 DUP1 PUSH1 0x0 DUP1 PUSH1 0x0 DUP1 PUSH1 0x0 PUSH2 0x100 DUP11 DUP13 SUB SLT ISZERO PUSH2 0xA70 JUMPI PUSH2 0xA6F PUSH2 0x72B JUMP JUMPDEST JUMPDEST PUSH1 0x0 PUSH2 0xA7E DUP13 DUP3 DUP14 ADD PUSH2 0x756 JUMP JUMPDEST SWAP10 POP POP PUSH1 0x20 PUSH2 0xA8F DUP13 DUP3 DUP14 ADD PUSH2 0x78C JUMP JUMPDEST SWAP9 POP POP PUSH1 0x40 PUSH2 0xAA0 DUP13 DUP3 DUP14 ADD PUSH2 0x78C JUMP JUMPDEST SWAP8 POP POP PUSH1 0x60 PUSH2 0xAB1 DUP13 DUP3 DUP14 ADD PUSH2 0x78C JUMP JUMPDEST SWAP7 POP POP PUSH1 0x80 PUSH2 0xAC2 DUP13 DUP3 DUP14 ADD PUSH2 0x78C JUMP JUMPDEST SWAP6 POP POP PUSH1 0xA0 PUSH2 0xAD3 DUP13 DUP3 DUP14 ADD PUSH2 0x78C JUMP JUMPDEST SWAP5 POP POP PUSH1 0xC0 PUSH2 0xAE4 DUP13 DUP3 DUP14 ADD PUSH2 0x78C JUMP JUMPDEST SWAP4 POP POP PUSH1 0xE0 DUP11 ADD CALLDATALOAD PUSH8 0xFFFFFFFFFFFFFFFF DUP2 GT ISZERO PUSH2 0xB05 JUMPI PUSH2 0xB04 PUSH2 0x730 JUMP JUMPDEST JUMPDEST PUSH2 0xB11 DUP13 DUP3 DUP14 ADD PUSH2 0x806 JUMP JUMPDEST SWAP3 POP SWAP3 POP POP SWAP3 SWAP6 SWAP9 POP SWAP3 SWAP6 SWAP9 POP SWAP3 SWAP6 SWAP9 JUMP JUMPDEST PUSH1 0x0 PUSH20 0xFFFFFFFFFFFFFFFFFFFFFFFFFFFFFFFFFFFFFFFF DUP3 AND SWAP1 POP SWAP2 SWAP1 POP JUMP JUMPDEST PUSH1 0x0 PUSH2 0xB4E DUP3 PUSH2 0xB23 JUMP JUMPDEST SWAP1 POP SWAP2 SWAP1 POP JUMP JUMPDEST PUSH2 0xB5E DUP2 PUSH2 0xB43 JUMP JUMPDEST DUP3 MSTORE POP POP JUMP JUMPDEST PUSH1 0x0 PUSH1 0x20 DUP3 ADD SWAP1 POP PUSH2 0xB79 PUSH1 0x0 DUP4 ADD DUP5 PUSH2 0xB55 JUMP JUMPDEST SWAP3 SWAP2 POP POP JUMP JUMPDEST PUSH1 0x0 DUP3 DUP3 MSTORE PUSH1 0x20 DUP3 ADD SWAP1 POP SWAP3 SWAP2 POP POP JUMP JUMPDEST PUSH32 0x6E6F7420696E697469616C697A65640000000000000000000000000000000000 PUSH1 0x0 DUP3 ADD MSTORE POP JUMP JUMPDEST PUSH1 0x0 PUSH2 0xBC6 PUSH1 0xF DUP4 PUSH2 0xB7F JUMP JUMPDEST SWAP2 POP PUSH2 0xBD1 DUP3 PUSH2 0xB90 JUMP JUMPDEST PUSH1 0x20 DUP3 ADD SWAP1 POP SWAP2 SWAP1 POP JUMP JUMPDEST PUSH1 0x0 PUSH1 0x20 DUP3 ADD SWAP1 POP DUP2 DUP2 SUB PUSH1 0x0 DUP4 ADD MSTORE PUSH2 0xBF5 DUP2 PUSH2 0xBB9 JUMP JUMPDEST SWAP1 POP SWAP2 SWAP1 POP JUMP JUMPDEST DUP3 DUP2 DUP4 CALLDATACOPY PUSH1 0x0 DUP4 DUP4 ADD MSTORE POP POP POP JUMP JUMPDEST PUSH1 0x0 PUSH1 0x1F NOT PUSH1 0x1F DUP4 ADD AND SWAP1 POP SWAP2 SWAP1 POP JUMP JUMPDEST PUSH1 0x0 PUSH2 0xC28 DUP4 DUP6 PUSH2 0xB7F JUMP JUMPDEST SWAP4 POP PUSH2 0xC35 DUP4 DUP6 DUP5 PUSH2 0xBFC JUMP JUMPDEST PUSH2 0xC3E DUP4 PUSH2 0xC0B JUMP JUMPDEST DUP5 ADD SWAP1 POP SWAP4 SWAP3 POP POP POP JUMP JUMPDEST PUSH1 0x0 PUSH1 0x60 DUP3 ADD SWAP1 POP PUSH2 0xC5E PUSH1 0x0 DUP4 ADD DUP8 PUSH2 0xA23 JUMP JUMPDEST PUSH2 0xC6B PUSH1 0x20 DUP4 ADD DUP7 PUSH2 0xA23 JUMP JUMPDEST DUP2 DUP2 SUB PUSH1 0x40 DUP4 ADD MSTORE PUSH2 0xC7E DUP2 DUP5 DUP7 PUSH2 0xC1C JUMP JUMPDEST SWAP1 POP SWAP6 SWAP5 POP POP POP POP POP JUMP JUMPDEST PUSH32 0x6F6E6C79204B4743000000000000000000000000000000000000000000000000 PUSH1 0x0 DUP3 ADD MSTORE POP JUMP JUMPDEST PUSH1 0x0 PUSH2 0xCBF PUSH1 0x8 DUP4 PUSH2 0xB7F JUMP JUMPDEST SWAP2 POP PUSH2 0xCCA DUP3 PUSH2 0xC89 JUMP JUMPDEST PUSH1 0x20 DUP3 ADD SWAP1 POP SWAP2 SWAP1 POP JUMP JUMPDEST PUSH1 0x0 PUSH1 0x20 DUP3 ADD SWAP1 POP DUP2 DUP2 SUB PUSH1 0x0 DUP4 ADD MSTORE PUSH2 0xCEE DUP2 PUSH2 0xCB2 JUMP JUMPDEST SWAP1 POP SWAP2 SWAP1 POP JUMP JUMPDEST PUSH32 0x616C726561647920696E697469616C697A656400000000000000000000000000 PUSH1 0x0 DUP3 ADD MSTORE POP JUMP JUMPDEST PUSH1 0x0 PUSH2 0xD2B PUSH1 0x13 DUP4 PUSH2 0xB7F JUMP JUMPDEST SWAP2 POP PUSH2 0xD36 DUP3 PUSH2 0xCF5 JUMP JUMPDEST PUSH1 0x20 DUP3 ADD SWAP1 POP SWAP2 SWAP1 POP JUMP JUMPDEST PUSH1 0x0 PUSH1 0x20 DUP3 ADD SWAP1 POP DUP2 DUP2 SUB PUSH1 0x0 DUP4 ADD MSTORE PUSH2 0xD5A DUP2 PUSH2 0xD1E JUMP JUMPDEST SWAP1 POP SWAP2 SWAP1 POP JUMP JUMPDEST PUSH1 0x0 DUP2 SWAP1 POP SWAP3 SWAP2 POP POP JUMP JUMPDEST PUSH32 0x41554449545F494E495400000000000000000000000000000000000000000000 PUSH1 0x0 DUP3 ADD MSTORE POP JUMP JUMPDEST PUSH1 0x0 PUSH2 0xDA2 PUSH1 0xA DUP4 PUSH2 0xD61 JUMP JUMPDEST SWAP2 POP PUSH2 0xDAD DUP3 PUSH2 0xD6C JUMP JUMPDEST PUSH1 0xA DUP3 ADD SWAP1 POP SWAP2 SWAP1 POP JUMP JUMPDEST PUSH1 0x0 DUP2 SWAP1 POP SWAP2 SWAP1 POP JUMP JUMPDEST PUSH2 0xDD3 PUSH2 0xDCE DUP3 PUSH2 0x76B JUMP JUMPDEST PUSH2 0xDB8 JUMP JUMPDEST DUP3 MSTORE POP POP JUMP JUMPDEST PUSH1 0x0 PUSH2 0xDE4 DUP3 PUSH2 0xD95 JUMP JUMPDEST SWAP2 POP PUSH2 0xDF0 DUP3 DUP7 PUSH2 0xDC2 JUMP JUMPDEST PUSH1 0x20 DUP3 ADD SWAP2 POP PUSH2 0xE00 DUP3 DUP6 PUSH2 0xDC2 JUMP JUMPDEST PUSH1 0x20 DUP3 ADD SWAP2 POP PUSH2 0xE10 DUP3 DUP5 PUSH2 0xDC2 JUMP JUMPDEST PUSH1 0x20 DUP3 ADD SWAP2 POP DUP2 SWAP1 POP SWAP5 SWAP4 POP POP POP POP JUMP JUMPDEST PUSH1 0x0 DUP2 MLOAD SWAP1 POP SWAP2 SWAP1 POP JUMP JUMPDEST PUSH1 0x0 DUP2 SWAP1 POP SWAP3 SWAP2 POP POP JUMP JUMPDEST PUSH1 0x0 JUMPDEST DUP4 DUP2 LT ISZERO PUSH2 0xE55 JUMPI DUP1 DUP3 ADD MLOAD DUP2 DUP5 ADD MSTORE PUSH1 0x20 DUP2 ADD SWAP1 POP PUSH2 0xE3A JUMP JUMPDEST PUSH1 0x0 DUP5 DUP5 ADD MSTORE POP POP POP POP JUMP JUMPDEST PUSH1 0x0 PUSH2 0xE6C DUP3 PUSH2 0xE21 JUMP JUMPDEST PUSH2 0xE76 DUP2 DUP6 PUSH2 0xE2C JUMP JUMPDEST SWAP4 POP PUSH2 0xE86 DUP2 DUP6 PUSH1 0x20 DUP7 ADD PUSH2 0xE37 JUMP JUMPDEST DUP1 DUP5 ADD SWAP2 POP POP SWAP3 SWAP2 POP POP JUMP JUMPDEST PUSH1 0x0 PUSH2 0xE9E DUP3 DUP5 PUSH2 0xE61 JUMP JUMPDEST SWAP2 POP DUP2 SWAP1 POP SWAP3 SWAP2 POP POP JUMP JUMPDEST PUSH1 0x0 DUP2 MLOAD SWAP1 POP PUSH2 0xEB8 DUP2 PUSH2 0x775 JUMP JUMPDEST SWAP3 SWAP2 POP POP JUMP JUMPDEST PUSH1 0x0 PUSH1 0x20 DUP3 DUP5 SUB SLT ISZERO PUSH2 0xED4 JUMPI PUSH2 0xED3 PUSH2 0x72B JUMP JUMPDEST JUMPDEST PUSH1 0x0 PUSH2 0xEE2 DUP5 DUP3 DUP6 ADD PUSH2 0xEA9 JUMP JUMPDEST SWAP2 POP POP SWAP3 SWAP2 POP POP JUMP JUMPDEST PUSH32 0x626164206175646974526F6F7430000000000000000000000000000000000000 PUSH1 0x0 DUP3 ADD MSTORE POP JUMP JUMPDEST PUSH1 0x0 PUSH2 0xF21 PUSH1 0xE DUP4 PUSH2 0xB7F JUMP JUMPDEST SWAP2 POP PUSH2 0xF2C DUP3 PUSH2 0xEEB JUMP JUMPDEST PUSH1 0x20 DUP3 ADD SWAP1 POP SWAP2 SWAP1 POP JUMP JUMPDEST PUSH1 0x0 PUSH1 0x20 DUP3 ADD SWAP1 POP DUP2 DUP2 SUB PUSH1 0x0 DUP4 ADD MSTORE PUSH2 0xF50 DUP2 PUSH2 0xF14 JUMP JUMPDEST SWAP1 POP SWAP2 SWAP1 POP JUMP JUMPDEST PUSH1 0x0 PUSH1 0x40 DUP3 ADD SWAP1 POP PUSH2 0xF6C PUSH1 0x0 DUP4 ADD DUP6 PUSH2 0xA23 JUMP JUMPDEST PUSH2 0xF79 PUSH1 0x20 DUP4 ADD DUP5 PUSH2 0xA23 JUMP JUMPDEST SWAP4 SWAP3 POP POP POP JUMP JUMPDEST PUSH32 0x4E487B7100000000000000000000000000000000000000000000000000000000 PUSH1 0x0 MSTORE PUSH1 0x11 PUSH1 0x4 MSTORE PUSH1 0x24 PUSH1 0x0 REVERT JUMPDEST PUSH1 0x0 PUSH2 0xFBA DUP3 PUSH2 0x735 JUMP JUMPDEST SWAP2 POP PUSH2 0xFC5 DUP4 PUSH2 0x735 JUMP JUMPDEST SWAP3 POP DUP3 DUP3 ADD SWAP1 POP DUP1 DUP3 GT ISZERO PUSH2 0xFDD JUMPI PUSH2 0xFDC PUSH2 0xF80 JUMP JUMPDEST JUMPDEST SWAP3 SWAP2 POP POP JUMP JUMPDEST PUSH32 0x62616420726F756E640000000000000000000000000000000000000000000000 PUSH1 0x0 DUP3 ADD MSTORE POP JUMP JUMPDEST PUSH1 0x0 PUSH2 0x1019 PUSH1 0x9 DUP4 PUSH2 0xB7F JUMP JUMPDEST SWAP2 POP PUSH2 0x1024 DUP3 PUSH2 0xFE3 JUMP JUMPDEST PUSH1 0x20 DUP3 ADD SWAP1 POP SWAP2 SWAP1 POP JUMP JUMPDEST PUSH1 0x0 PUSH1 0x20 DUP3 ADD SWAP1 POP DUP2 DUP2 SUB PUSH1 0x0 DUP4 ADD MSTORE PUSH2 0x1048 DUP2 PUSH2 0x100C JUMP JUMPDEST SWAP1 POP SWAP2 SWAP1 POP JUMP JUMPDEST PUSH32 0x626164206D6F64656C20636861696E0000000000000000000000000000000000 PUSH1 0x0 DUP3 ADD MSTORE POP JUMP JUMPDEST PUSH1 0x0 PUSH2 0x1085 PUSH1 0xF DUP4 PUSH2 0xB7F JUMP JUMPDEST SWAP2 POP PUSH2 0x1090 DUP3 PUSH2 0x104F JUMP JUMPDEST PUSH1 0x20 DUP3 ADD SWAP1 POP SWAP2 SWAP1 POP JUMP JUMPDEST PUSH1 0x0 PUSH1 0x20 DUP3 ADD SWAP1 POP DUP2 DUP2 SUB PUSH1 0x0 DUP4 ADD MSTORE PUSH2 0x10B4 DUP2 PUSH2 0x1078 JUMP JUMPDEST SWAP1 POP SWAP2 SWAP1 POP JUMP JUMPDEST PUSH1 0x0 DUP2 SWAP1 POP SWAP2 SWAP1 POP JUMP JUMPDEST PUSH2 0x10D6 PUSH2 0x10D1 DUP3 PUSH2 0x735 JUMP JUMPDEST PUSH2 0x10BB JUMP JUMPDEST DUP3 MSTORE POP POP JUMP JUMPDEST PUSH1 0x0 PUSH2 0x10E8 DUP3 DUP11 PUSH2 0xDC2 JUMP JUMPDEST PUSH1 0x20 DUP3 ADD SWAP2 POP PUSH2 0x10F8 DUP3 DUP10 PUSH2 0x10C5 JUMP JUMPDEST PUSH1 0x20 DUP3 ADD SWAP2 POP PUSH2 0x1108 DUP3 DUP9 PUSH2 0xDC2 JUMP JUMPDEST PUSH1 0x20 DUP3 ADD SWAP2 POP PUSH2 0x1118 DUP3 DUP8 PUSH2 0xDC2 JUMP JUMPDEST PUSH1 0x20 DUP3 ADD SWAP2 POP PUSH2 0x1128 DUP3 DUP7 PUSH2 0xDC2 JUMP JUMPDEST PUSH1 0x20 DUP3 ADD SWAP2 POP PUSH2 0x1138 DUP3 DUP6 PUSH2 0xDC2 JUMP JUMPDEST PUSH1 0x20 DUP3 ADD SWAP2 POP PUSH2 0x1148 DUP3 DUP5 PUSH2 0xDC2 JUMP JUMPDEST PUSH1 0x20 DUP3 ADD SWAP2 POP DUP2 SWAP1 POP SWAP9 SWAP8 POP POP POP POP POP POP POP POP JUMP JUMPDEST PUSH32 0x62616420617564697420726F6F74000000000000000000000000000000000000 PUSH1 0x0 DUP3 ADD MSTORE POP JUMP JUMPDEST PUSH1 0x0 PUSH2 0x1193 PUSH1 0xE DUP4 PUSH2 0xB7F JUMP JUMPDEST SWAP2 POP PUSH2 0x119E DUP3 PUSH2 0x115D JUMP JUMPDEST PUSH1 0x20 DUP3 ADD SWAP1 POP SWAP2 SWAP1 POP JUMP JUMPDEST PUSH1 0x0 PUSH1 0x20 DUP3 ADD SWAP1 POP DUP2 DUP2 SUB PUSH1 0x0 DUP4 ADD MSTORE PUSH2 0x11C2 DUP2 PUSH2 0x1186 JUMP JUMPDEST SWAP1 POP SWAP2 SWAP1 POP JUMP INVALID LOG2 PUSH5 0x6970667358 0x22 SLT KECCAK256 0x4D ADDRESS SWAP1 MSIZE MSTORE STOP 0xCA PUSH28 0xD9A37FFC6FBFF8BBDD6DE836C1470720BD9F03CF7B7A217464736F6C PUSH4 0x43000818 STOP CALLER "},"methodIdentifiers":{"initialized()":"158ef93e","kgc()":"d6a75829","latestAuditRoot()":"9caff910","latestModelHash()":"a0235f04","latestRound()":"668a0f02","submitFinal(uint256,bytes32,bytes32,bytes32,bytes32,bytes32,bytes32,bytes)":"9ec5c863","submitFraudProof(uint256,bytes32,bytes32,bytes32,string,bytes,bytes)":"1b03f905","submitInit(bytes32,bytes32,bytes32,bytes32,bytes)":"8a816a12"}}}}}