{
  "_format": "hh-sol-artifact-1",
  "contractName": "AuditBoard",
  "sourceName": "contracts/AuditBoard.sol",
  "abi": [
    {
      "inputs": [
        {
          "internalType": "address",
          "name": "kgcAddress",
          "type": "address"
        }
      ],
      "stateMutability": "nonpayable",
      "type": "constructor"
    },
    {
      "anonymous": false,
      "inputs": [
        {
          "indexed": true,
          "internalType": "uint256",
          "name": "round",
          "type": "uint256"
        },
        {
          "indexed": true,
          "internalType": "bytes32",
          "name": "auditRoot",
          "type": "bytes32"
        },
        {
          "indexed": true,
          "internalType": "bytes32",
          "name": "modelHashNext",
          "type": "bytes32"
        },
        {
          "indexed": false,
          "internalType": "bytes32",
          "name": "rootUp",
          "type": "bytes32"
        },
        {
          "indexed": false,
          "internalType": "bytes32",
          "name": "comAggHash",
          "type": "bytes32"
        }
      ],
      "name": "FinalSubmitted",
      "type": "event"
    },
    {
      "anonymous": false,
      "inputs": [
        {
          "indexed": true,
          "internalType": "uint256",
          "name": "round",
          "type": "uint256"
        },
        {
          "indexed": true,
          "internalType": "bytes32",
          "name": "clientIdHash",
          "type": "bytes32"
        },
        {
          "indexed": false,
          "internalType": "bytes32",
          "name": "receiptHash",
          "type": "bytes32"
        },
        {
          "indexed": false,
          "internalType": "bytes32",
          "name": "rootUp",
          "type": "bytes32"
        },
        {
          "indexed": false,
          "internalType": "string",
          "name": "claimType",
          "type": "string"
        }
      ],
      "name": "FraudProofSubmitted",
      "type": "event"
    },
    {
      "anonymous": false,
      "inputs": [
        {
          "indexed": true,
          "internalType": "bytes32",
          "name": "auditRoot0",
          "type": "bytes32"
        },
        {
          "indexed": true,
          "internalType": "bytes32",
          "name": "modelHash0",
          "type": "bytes32"
        },
        {
          "indexed": false,
          "internalType": "bytes32",
          "name": "sysParaHash",
          "type": "bytes32"
        },
        {
          "indexed": false,
          "internalType": "bytes32",
          "name": "uRoot",
          "type": "bytes32"
        }
      ],
      "name": "InitSubmitted",
      "type": "event"
    },
    {
      "inputs": [],
      "name": "initialized",
      "outputs": [
        {
          "internalType": "bool",
          "name": "",
          "type": "bool"
        }
      ],
      "stateMutability": "view",
      "type": "function"
    },
    {
      "inputs": [],
      "name": "kgc",
      "outputs": [
        {
          "internalType": "address",
          "name": "",
          "type": "address"
        }
      ],
      "stateMutability": "view",
      "type": "function"
    },
    {
      "inputs": [],
      "name": "latestAuditRoot",
      "outputs": [
        {
          "internalType": "bytes32",
          "name": "",
          "type": "bytes32"
        }
      ],
      "stateMutability": "view",
      "type": "function"
    },
    {
      "inputs": [],
      "name": "latestModelHash",
      "outputs": [
        {
          "internalType": "bytes32",
          "name": "",
          "type": "bytes32"
        }
      ],
      "stateMutability": "view",
      "type": "function"
    },
    {
      "inputs": [],
      "name": "latestRound",
      "outputs": [
        {
          "internalType": "uint256",
          "name": "",
          "type": "uint256"
        }
      ],
      "stateMutability": "view",
      "type": "function"
    },
    {
      "inputs": [
        {
          "internalType": "uint256",
          "name": "round",
          "type": "uint256"
        },
        {
          "internalType": "bytes32",
          "name": "alpha",
          "type": "bytes32"
        },
        {
          "internalType": "bytes32",
          "name": "rootUp",
          "type": "bytes32"
        },
        {
          "internalType": "bytes32",
          "name": "comAggHash",
          "type": "bytes32"
        },
        {
          "internalType": "bytes32",
          "name": "modelHashR",
          "type": "bytes32"
        },
        {
          "internalType": "bytes32",
          "name": "modelHashNext",
          "type": "bytes32"
        },
        {
          "internalType": "bytes32",
          "name": "auditRoot",
          "type": "bytes32"
        },
        {
          "internalType": "bytes",
          "name": "sigFinal",
          "type": "bytes"
        }
      ],
      "name": "submitFinal",
      "outputs": [],
      "stateMutability": "nonpayable",
      "type": "function"
    },
    {
      "inputs": [
        {
          "internalType": "uint256",
          "name": "round",
          "type": "uint256"
        },
        {
          "internalType": "bytes32",
          "name": "clientIdHash",
          "type": "bytes32"
        },
        {
          "internalType": "bytes32",
          "name": "receiptHash",
          "type": "bytes32"
        },
        {
          "internalType": "bytes32",
          "name": "rootUp",
          "type": "bytes32"
        },
        {
          "internalType": "string",
          "name": "claimType",
          "type": "string"
        },
        {
          "internalType": "bytes",
          "name": "proofData",
          "type": "bytes"
        },
        {
          "internalType": "bytes",
          "name": "sigClient",
          "type": "bytes"
        }
      ],
      "name": "submitFraudProof",
      "outputs": [],
      "stateMutability": "nonpayable",
      "type": "function"
    },
    {
      "inputs": [
        {
          "internalType": "bytes32",
          "name": "sysParaHash",
          "type": "bytes32"
        },
        {
          "internalType": "bytes32",
          "name": "uRoot",
          "type": "bytes32"
        },
        {
          "internalType": "bytes32",
          "name": "modelHash0",
          "type": "bytes32"
        },
        {
          "internalType": "bytes32",
          "name": "auditRoot0",
          "type": "bytes32"
        },
        {
          "internalType": "bytes",
          "name": "sigInit",
          "type": "bytes"
        }
      ],
      "name": "submitInit",
      "outputs": [],
      "stateMutability": "nonpayable",
      "type": "function"
    }
  ],
  "bytecode": "0x60806040523480156200001157600080fd5b5060405162001329380380620013298339818101604052810190620000379190620000e8565b806000806101000a81548173ffffffffffffffffffffffffffffffffffffffff021916908373ffffffffffffffffffffffffffffffffffffffff160217905550506200011a565b600080fd5b600073ffffffffffffffffffffffffffffffffffffffff82169050919050565b6000620000b08262000083565b9050919050565b620000c281620000a3565b8114620000ce57600080fd5b50565b600081519050620000e281620000b7565b92915050565b6000602082840312156200010157620001006200007e565b5b60006200011184828501620000d1565b91505092915050565b6111ff806200012a6000396000f3fe608060405234801561001057600080fd5b50600436106100885760003560e01c80639caff9101161005b5780639caff910146101015780639ec5c8631461011f578063a0235f041461013b578063d6a758291461015957610088565b8063158ef93e1461008d5780631b03f905146100ab578063668a0f02146100c75780638a816a12146100e5575b600080fd5b610095610177565b6040516100a29190610710565b60405180910390f35b6100c560048036038101906100c0919061085c565b61018a565b005b6100cf610224565b6040516100dc919061096e565b60405180910390f35b6100ff60048036038101906100fa9190610989565b61022a565b005b610109610436565b6040516101169190610a32565b60405180910390f35b61013960048036038101906101349190610a4d565b61043c565b005b6101436106cb565b6040516101509190610a32565b60405180910390f35b6101616106d1565b60405161016e9190610b64565b60405180910390f35b600060149054906101000a900460ff1681565b600060149054906101000a900460ff166101d9576040517f08c379a00000000000000000000000000000000000000000000000000000000081526004016101d090610bdc565b60405180910390fd5b888a7f25898e2f97dae06f4b5de446a24f320b141fd796b694ab8ba98a553d3148d8118a8a8a8a6040516102109493929190610c49565b60405180910390a350505050505050505050565b60015481565b60008054906101000a900473ffffffffffffffffffffffffffffffffffffffff1673ffffffffffffffffffffffffffffffffffffffff163373ffffffffffffffffffffffffffffffffffffffff16146102b8576040517f08c379a00000000000000000000000000000000000000000000000000000000081526004016102af90610cd5565b60405180910390fd5b600060149054906101000a900460ff1615610308576040517f08c379a00000000000000000000000000000000000000000000000000000000081526004016102ff90610d41565b60405180910390fd5b6000600287878760405160200161032193929190610dd9565b60405160208183030381529060405260405161033d9190610e92565b602060405180830381855afa15801561035a573d6000803e3d6000fd5b5050506040513d601f19601f8201168201806040525081019061037d9190610ebe565b90508381146103c1576040517f08c379a00000000000000000000000000000000000000000000000000000000081526004016103b890610f37565b60405180910390fd5b6001600060146101000a81548160ff0219169083151502179055506000600181905550836002819055508460038190555084847f85a8ed4546d7f875e278f3f65dfa94750d199c7957176098cf0756d1e5afd7c78989604051610425929190610f57565b60405180910390a350505050505050565b60025481565b60008054906101000a900473ffffffffffffffffffffffffffffffffffffffff1673ffffffffffffffffffffffffffffffffffffffff163373ffffffffffffffffffffffffffffffffffffffff16146104ca576040517f08c379a00000000000000000000000000000000000000000000000000000000081526004016104c190610cd5565b60405180910390fd5b600060149054906101000a900460ff16610519576040517f08c379a000000000000000000000000000000000000000000000000000000000815260040161051090610bdc565b60405180910390fd5b600180546105279190610faf565b8914610568576040517f08c379a000000000000000000000000000000000000000000000000000000000815260040161055f9061102f565b60405180910390fd5b60035485146105ac576040517f08c379a00000000000000000000000000000000000000000000000000000000081526004016105a39061109b565b60405180910390fd5b6000600280548b8b8b8b8b8b6040516020016105ce97969594939291906110dc565b6040516020818303038152906040526040516105ea9190610e92565b602060405180830381855afa158015610607573d6000803e3d6000fd5b5050506040513d601f19601f8201168201806040525081019061062a9190610ebe565b905083811461066e576040517f08c379a0000000000000000000000000000000000000000000000000000000008152600401610665906111a9565b60405180910390fd5b89600181905550836002819055508460038190555084848b7fd20359f9c48119bd2d91a5e31e116d720ba87fc9ec580a554f96be637f2b74068b8b6040516106b7929190610f57565b60405180910390a450505050505050505050565b60035481565b60008054906101000a900473ffffffffffffffffffffffffffffffffffffffff1681565b60008115159050919050565b61070a816106f5565b82525050565b60006020820190506107256000830184610701565b92915050565b600080fd5b600080fd5b6000819050919050565b61074881610735565b811461075357600080fd5b50565b6000813590506107658161073f565b92915050565b6000819050919050565b61077e8161076b565b811461078957600080fd5b50565b60008135905061079b81610775565b92915050565b600080fd5b600080fd5b600080fd5b60008083601f8401126107c6576107c56107a1565b5b8235905067ffffffffffffffff8111156107e3576107e26107a6565b5b6020830191508360018202830111156107ff576107fe6107ab565b5b9250929050565b60008083601f84011261081c5761081b6107a1565b5b8235905067ffffffffffffffff811115610839576108386107a6565b5b602083019150836001820283011115610855576108546107ab565b5b9250929050565b60008060008060008060008060008060e08b8d03121561087f5761087e61072b565b5b600061088d8d828e01610756565b9a5050602061089e8d828e0161078c565b99505060406108af8d828e0161078c565b98505060606108c08d828e0161078c565b97505060808b013567ffffffffffffffff8111156108e1576108e0610730565b5b6108ed8d828e016107b0565b965096505060a08b013567ffffffffffffffff8111156109105761090f610730565b5b61091c8d828e01610806565b945094505060c08b013567ffffffffffffffff81111561093f5761093e610730565b5b61094b8d828e01610806565b92509250509295989b9194979a5092959850565b61096881610735565b82525050565b6000602082019050610983600083018461095f565b92915050565b60008060008060008060a087890312156109a6576109a561072b565b5b60006109b489828a0161078c565b96505060206109c589828a0161078c565b95505060406109d689828a0161078c565b94505060606109e789828a0161078c565b935050608087013567ffffffffffffffff811115610a0857610a07610730565b5b610a1489828a01610806565b92509250509295509295509295565b610a2c8161076b565b82525050565b6000602082019050610a476000830184610a23565b92915050565b60008060008060008060008060006101008a8c031215610a7057610a6f61072b565b5b6000610a7e8c828d01610756565b9950506020610a8f8c828d0161078c565b9850506040610aa08c828d0161078c565b9750506060610ab18c828d0161078c565b9650506080610ac28c828d0161078c565b95505060a0610ad38c828d0161078c565b94505060c0610ae48c828d0161078c565b93505060e08a013567ffffffffffffffff811115610b0557610b04610730565b5b610b118c828d01610806565b92509250509295985092959850929598565b600073ffffffffffffffffffffffffffffffffffffffff82169050919050565b6000610b4e82610b23565b9050919050565b610b5e81610b43565b82525050565b6000602082019050610b796000830184610b55565b92915050565b600082825260208201905092915050565b7f6e6f7420696e697469616c697a65640000000000000000000000000000000000600082015250565b6000610bc6600f83610b7f565b9150610bd182610b90565b602082019050919050565b60006020820190508181036000830152610bf581610bb9565b9050919050565b82818337600083830152505050565b6000601f19601f8301169050919050565b6000610c288385610b7f565b9350610c35838584610bfc565b610c3e83610c0b565b840190509392505050565b6000606082019050610c5e6000830187610a23565b610c6b6020830186610a23565b8181036040830152610c7e818486610c1c565b905095945050505050565b7f6f6e6c79204b4743000000000000000000000000000000000000000000000000600082015250565b6000610cbf600883610b7f565b9150610cca82610c89565b602082019050919050565b60006020820190508181036000830152610cee81610cb2565b9050919050565b7f616c726561647920696e697469616c697a656400000000000000000000000000600082015250565b6000610d2b601383610b7f565b9150610d3682610cf5565b602082019050919050565b60006020820190508181036000830152610d5a81610d1e565b9050919050565b600081905092915050565b7f41554449545f494e495400000000000000000000000000000000000000000000600082015250565b6000610da2600a83610d61565b9150610dad82610d6c565b600a82019050919050565b6000819050919050565b610dd3610dce8261076b565b610db8565b82525050565b6000610de482610d95565b9150610df08286610dc2565b602082019150610e008285610dc2565b602082019150610e108284610dc2565b602082019150819050949350505050565b600081519050919050565b600081905092915050565b60005b83811015610e55578082015181840152602081019050610e3a565b60008484015250505050565b6000610e6c82610e21565b610e768185610e2c565b9350610e86818560208601610e37565b80840191505092915050565b6000610e9e8284610e61565b915081905092915050565b600081519050610eb881610775565b92915050565b600060208284031215610ed457610ed361072b565b5b6000610ee284828501610ea9565b91505092915050565b7f626164206175646974526f6f7430000000000000000000000000000000000000600082015250565b6000610f21600e83610b7f565b9150610f2c82610eeb565b602082019050919050565b60006020820190508181036000830152610f5081610f14565b9050919050565b6000604082019050610f6c6000830185610a23565b610f796020830184610a23565b9392505050565b7f4e487b7100000000000000000000000000000000000000000000000000000000600052601160045260246000fd5b6000610fba82610735565b9150610fc583610735565b9250828201905080821115610fdd57610fdc610f80565b5b92915050565b7f62616420726f756e640000000000000000000000000000000000000000000000600082015250565b6000611019600983610b7f565b915061102482610fe3565b602082019050919050565b600060208201905081810360008301526110488161100c565b9050919050565b7f626164206d6f64656c20636861696e0000000000000000000000000000000000600082015250565b6000611085600f83610b7f565b91506110908261104f565b602082019050919050565b600060208201905081810360008301526110b481611078565b9050919050565b6000819050919050565b6110d66110d182610735565b6110bb565b82525050565b60006110e8828a610dc2565b6020820191506110f882896110c5565b6020820191506111088288610dc2565b6020820191506111188287610dc2565b6020820191506111288286610dc2565b6020820191506111388285610dc2565b6020820191506111488284610dc2565b60208201915081905098975050505050505050565b7f62616420617564697420726f6f74000000000000000000000000000000000000600082015250565b6000611193600e83610b7f565b915061119e8261115d565b602082019050919050565b600060208201905081810360008301526111c281611186565b905091905056fea26469706673582212204d3090595200ca7bd9a37ffc6fbff8bbdd6de836c1470720bd9f03cf7b7a217464736f6c63430008180033",
  "linkReferences": {},
  "deployedLinkReferences": {}
}